{
  "contractName": "abc",
  "abi": [
    {
      "constant": true,
      "inputs": [
        {
          "name": "",
          "type": "uint256"
        }
      ],
      "name": "userArray",
      "outputs": [
        {
          "name": "name",
          "type": "bytes32"
        },
        {
          "name": "score",
          "type": "uint256"
        }
      ],
      "payable": false,
      "stateMutability": "view",
      "type": "function"
    },
    {
      "constant": false,
      "inputs": [
        {
          "name": "_name",
          "type": "string"
        },
        {
          "name": "_score",
          "type": "uint256"
        }
      ],
      "name": "setuser",
      "outputs": [],
      "payable": false,
      "stateMutability": "nonpayable",
      "type": "function"
    },
    {
      "constant": true,
      "inputs": [
        {
          "name": "source",
          "type": "string"
        }
      ],
      "name": "stringToBytes32",
      "outputs": [
        {
          "name": "result",
          "type": "bytes32"
        }
      ],
      "payable": false,
      "stateMutability": "pure",
      "type": "function"
    },
    {
      "constant": true,
      "inputs": [],
      "name": "getUser",
      "outputs": [
        {
          "name": "",
          "type": "bytes32[]"
        },
        {
          "name": "",
          "type": "uint256[]"
        }
      ],
      "payable": false,
      "stateMutability": "view",
      "type": "function"
    }
  ],
  "bytecode": "0x608060405234801561001057600080fd5b506104ae806100206000396000f300608060405260043610610062576000357c0100000000000000000000000000000000000000000000000000000000900463ffffffff16806341209af114610067578063832880e7146100b7578063ad62e6b21461016b578063cfb51928146101de575b600080fd5b34801561007357600080fd5b5061009260048036038101908080359060200190929190505050610263565b6040518083600019166000191681526020018281526020019250505060405180910390f35b3480156100c357600080fd5b506100cc610296565b604051808060200180602001838103835285818151815260200191508051906020019060200280838360005b838110156101135780820151818401526020810190506100f8565b50505050905001838103825284818151815260200191508051906020019060200280838360005b8381101561015557808201518184015260208101905061013a565b5050505090500194505050505060405180910390f35b34801561017757600080fd5b506101dc600480360381019080803590602001908201803590602001908080601f0160208091040260200160405190810160405280939291908181526020018383808284378201915050505050509192919290803590602001909291905050506103bc565b005b3480156101ea57600080fd5b50610245600480360381019080803590602001908201803590602001908080601f016020809104026020016040519081016040528093929190818152602001838380828437820191505050505050919291929050505061043a565b60405180826000191660001916815260200191505060405180910390f35b60008181548110151561027257fe5b90600052602060002090600202016000915090508060000154908060010154905082565b6060806000606080600080805490509350836040519080825280602002602001820160405280156102d65781602001602082028038833980820191505090505b509250836040519080825280602002602001820160405280156103085781602001602082028038833980820191505090505b509150600090505b6000805490508110156103ae5760008181548110151561032c57fe5b906000526020600020906002020160000154838281518110151561034c57fe5b90602001906020020190600019169081600019168152505060008181548110151561037357fe5b906000526020600020906002020160010154828281518110151561039357fe5b90602001906020020181815250508080600101915050610310565b828295509550505050509091565b6103c4610465565b6103cd8361043a565b8160000190600019169081600019168152505081816020018181525050600081908060018154018082558091505090600182039060005260206000209060020201600090919290919091506000820151816000019060001916905560208201518160010155505050505050565b60006060829050600081511415610457576000600102915061045f565b602083015191505b50919050565b6040805190810160405280600080191681526020016000815250905600a165627a7a7230582027e49c73819e2760ed4209406eefb95cf38f9fc27ed6e7850377a700e7fb382d0029",
  "source": "pragma solidity ^0.4.19;\n\n\n\ncontract abc {\n  \n \n  \n    struct User {\n        bytes32 name;\n        uint score;\n      \n    }\n  \n      \n  \n  \n    User[] public userArray;\n  \n  //mapping(uint => User) userAccess;\n  \n  \n    function setuser(string _name, uint _score) public {\n        User memory newUser;   \n        newUser.name = stringToBytes32(_name);\n        newUser.score = _score;\n      \n      \n      //userAccess[level].push(newUser);\n        userArray.push(newUser);\n      \n    }\n  \n    function stringToBytes32(string memory source) public pure returns (bytes32 result) {\n        bytes memory tempEmptyStringTest = bytes(source);\n        if (tempEmptyStringTest.length == 0) {\n            return 0x0;\n            }\n\n        assembly {\n        result := mload(add(source, 32))\n        }\n    }\n  \n    function getUser() public view returns(bytes32[], uint[]){\n      //return(userAccess[level]);\n        uint length = userArray.length;\n      \n        bytes32[] memory nameName = new bytes32[](length);\n        uint[] memory scoreScore = new uint[](length);\n      \n        for (uint i = 0; i < userArray.length; i++){\n            nameName[i] = userArray[i].name;\n            scoreScore[i] = userArray[i].score;\n\n        }\n        return (nameName, scoreScore);\n    }\n     \n}",
  "sourcePath": "/Users/axiomreception/Documents/assignment/contracts/assignment.sol",
  "compiler": {
    "name": "solc",
    "version": "0.4.24+commit.e67f0147.Emscripten.clang"
  },
  "schemaVersion": "2.0.1",
  "updatedAt": "2018-08-16T14:21:54.222Z"
}