{
  "contractName": "abc",
  "abi": [
    {
      "constant": false,
      "inputs": [
        {
          "name": "_level",
          "type": "uint256"
        },
        {
          "name": "_name",
          "type": "string"
        },
        {
          "name": "_score",
          "type": "uint256"
        }
      ],
      "name": "setuser",
      "outputs": [],
      "payable": false,
      "stateMutability": "nonpayable",
      "type": "function"
    },
    {
      "constant": true,
      "inputs": [
        {
          "name": "source",
          "type": "string"
        }
      ],
      "name": "stringToBytes32",
      "outputs": [
        {
          "name": "result",
          "type": "bytes32"
        }
      ],
      "payable": false,
      "stateMutability": "pure",
      "type": "function"
    },
    {
      "constant": true,
      "inputs": [
        {
          "name": "_level",
          "type": "uint256"
        }
      ],
      "name": "getUser",
      "outputs": [
        {
          "name": "",
          "type": "bytes32[]"
        },
        {
          "name": "",
          "type": "uint256[]"
        }
      ],
      "payable": false,
      "stateMutability": "view",
      "type": "function"
    }
  ],
  "bytecode": "0x608060405234801561001057600080fd5b5061047e806100206000396000f300608060405260043610610057576000357c0100000000000000000000000000000000000000000000000000000000900463ffffffff1680638f62cdc31461005c578063b0467deb146100d9578063cfb51928146101a3575b600080fd5b34801561006857600080fd5b506100d760048036038101908080359060200190929190803590602001908201803590602001908080601f016020809104026020016040519081016040528093929190818152602001838380828437820191505050505050919291929080359060200190929190505050610228565b005b3480156100e557600080fd5b50610104600480360381019080803590602001909291905050506102b7565b604051808060200180602001838103835285818151815260200191508051906020019060200280838360005b8381101561014b578082015181840152602081019050610130565b50505050905001838103825284818151815260200191508051906020019060200280838360005b8381101561018d578082015181840152602081019050610172565b5050505090500194505050505060405180910390f35b3480156101af57600080fd5b5061020a600480360381019080803590602001908201803590602001908080601f016020809104026020016040519081016040528093929190818152602001838380828437820191505050505050919291929050505061040a565b60405180826000191660001916815260200191505060405180910390f35b610230610435565b6102398361040a565b81600001906000191690816000191681525050818160200181815250506000808581526020019081526020016000208190806001815401808255809150509060018203906000526020600020906002020160009091929091909150600082015181600001906000191690556020820151816001015550505050505050565b60608060006060806000806000888152602001908152602001600020805490509350836040519080825280602002602001820160405280156103085781602001602082028038833980820191505090505b5092508360405190808252806020026020018201604052801561033a5781602001602082028038833980820191505090505b509150600090505b838110156103fb576000808881526020019081526020016000208181548110151561036957fe5b906000526020600020906002020160000154838281518110151561038957fe5b906020019060200201906000191690816000191681525050600080888152602001908152602001600020818154811015156103c057fe5b90600052602060002090600202016001015482828151811015156103e057fe5b90602001906020020181815250508080600101915050610342565b82829550955050505050915091565b60006060829050600081511415610427576000600102915061042f565b602083015191505b50919050565b6040805190810160405280600080191681526020016000815250905600a165627a7a723058205e2168982d70115f40bdb227a00f255d7b7f09c1423d43178c74887c5d1cda870029",
  "source": "pragma solidity ^0.4.19;\n\n\n\ncontract abc {\n  \n \n  \n  struct User {\n      bytes32 name;\n      uint score;\n      \n  }\n  \n      \n  \n  \n  //User[] public userArray;\n  \n  mapping(uint => User[]) userAccess;\n  \n  \n  function setuser(uint _level, string _name, uint _score) public {\n      User memory newUser;   \n      newUser.name = stringToBytes32(_name);\n      newUser.score = _score;\n      \n      \n      userAccess[_level].push(newUser);\n      //userArray.push(newUser);\n      \n  }\n  \n  function stringToBytes32(string memory source) public pure returns (bytes32 result) {\n    bytes memory tempEmptyStringTest = bytes(source);\n    if (tempEmptyStringTest.length == 0) {\n        return 0x0;\n    }\n\n    assembly {\n        result := mload(add(source, 32))\n    }\n}\n  \n  function getUser(uint _level) view public returns(bytes32[], uint[]){\n      //return(userAccess[level]);\n      uint length = userAccess[_level].length;\n      \n      bytes32[] memory nameName = new bytes32[](length);\n      uint[] memory scoreScore = new uint[](length);\n      \n      for (uint i = 0; i < length; i++){\n      nameName[i] = userAccess[_level][i].name;\n      scoreScore[i] = userAccess[_level][i].score;\n\n    }\n  return(nameName, scoreScore);\n  }\n     \n}\n//User memory currentUser;\n      //currentUser = userArray[i];\n      //nameName[i] = currentUser.name;\n      //scoreScore[i] = currentUser.score;\n  ",
  "sourcePath": "/Users/axiomreception/Documents/assignment/contracts/assignment.sol",
  "compiler": {
    "name": "solc",
    "version": "0.4.24+commit.e67f0147.Emscripten.clang"
  },
  "schemaVersion": "2.0.1",
  "updatedAt": "2018-08-16T16:30:53.947Z"
}